{
  "contractName": "LedgerChannels",
  "abi": [
    {
      "anonymous": false,
      "inputs": [
        {
          "indexed": true,
          "name": "id",
          "type": "uint256"
        },
        {
          "indexed": true,
          "name": "initiator",
          "type": "address"
        },
        {
          "indexed": true,
          "name": "confirmer",
          "type": "address"
        },
        {
          "indexed": false,
          "name": "balanceA",
          "type": "uint256"
        }
      ],
      "name": "Opening",
      "type": "event"
    },
    {
      "anonymous": false,
      "inputs": [
        {
          "indexed": true,
          "name": "id",
          "type": "uint256"
        },
        {
          "indexed": true,
          "name": "initiator",
          "type": "address"
        },
        {
          "indexed": true,
          "name": "confirmer",
          "type": "address"
        },
        {
          "indexed": false,
          "name": "balanceA",
          "type": "uint256"
        }
      ],
      "name": "OpenTimeout",
      "type": "event"
    },
    {
      "anonymous": false,
      "inputs": [
        {
          "indexed": true,
          "name": "id",
          "type": "uint256"
        },
        {
          "indexed": true,
          "name": "initiator",
          "type": "address"
        },
        {
          "indexed": true,
          "name": "confirmer",
          "type": "address"
        },
        {
          "indexed": false,
          "name": "balanceA",
          "type": "uint256"
        },
        {
          "indexed": false,
          "name": "balanceB",
          "type": "uint256"
        }
      ],
      "name": "Open",
      "type": "event"
    },
    {
      "anonymous": false,
      "inputs": [
        {
          "indexed": true,
          "name": "id",
          "type": "uint256"
        },
        {
          "indexed": true,
          "name": "closer",
          "type": "address"
        },
        {
          "indexed": true,
          "name": "confirmer",
          "type": "address"
        },
        {
          "indexed": false,
          "name": "finalBalanceA",
          "type": "uint256"
        },
        {
          "indexed": false,
          "name": "finalBalanceB",
          "type": "uint256"
        }
      ],
      "name": "Closing",
      "type": "event"
    },
    {
      "anonymous": false,
      "inputs": [
        {
          "indexed": true,
          "name": "id",
          "type": "uint256"
        },
        {
          "indexed": true,
          "name": "closer",
          "type": "address"
        },
        {
          "indexed": true,
          "name": "confirmer",
          "type": "address"
        },
        {
          "indexed": false,
          "name": "finalBalanceA",
          "type": "uint256"
        },
        {
          "indexed": false,
          "name": "finalBalanceB",
          "type": "uint256"
        }
      ],
      "name": "Closed",
      "type": "event"
    },
    {
      "anonymous": false,
      "inputs": [
        {
          "indexed": true,
          "name": "id",
          "type": "uint256"
        },
        {
          "indexed": true,
          "name": "closer",
          "type": "address"
        },
        {
          "indexed": true,
          "name": "confirmer",
          "type": "address"
        },
        {
          "indexed": false,
          "name": "finalBalanceA",
          "type": "uint256"
        },
        {
          "indexed": false,
          "name": "finalBalanceB",
          "type": "uint256"
        }
      ],
      "name": "ClosedTimeout",
      "type": "event"
    },
    {
      "anonymous": false,
      "inputs": [
        {
          "indexed": true,
          "name": "id",
          "type": "uint256"
        },
        {
          "indexed": true,
          "name": "closer",
          "type": "address"
        },
        {
          "indexed": true,
          "name": "confirmer",
          "type": "address"
        },
        {
          "indexed": false,
          "name": "finalBalanceA",
          "type": "uint256"
        },
        {
          "indexed": false,
          "name": "finalBalanceB",
          "type": "uint256"
        }
      ],
      "name": "ClosedDisputed",
      "type": "event"
    },
    {
      "anonymous": false,
      "inputs": [
        {
          "indexed": true,
          "name": "id",
          "type": "uint256"
        },
        {
          "indexed": true,
          "name": "by",
          "type": "address"
        },
        {
          "indexed": false,
          "name": "balance",
          "type": "uint256"
        }
      ],
      "name": "Withdrawal",
      "type": "event"
    },
    {
      "constant": false,
      "inputs": [
        {
          "name": "_idSeed",
          "type": "uint256"
        },
        {
          "name": "_timeoutDuration",
          "type": "uint48"
        },
        {
          "name": "_counterParty",
          "type": "address"
        },
        {
          "name": "_counterBalance",
          "type": "uint256"
        }
      ],
      "name": "open",
      "outputs": [],
      "payable": true,
      "stateMutability": "payable",
      "type": "function"
    },
    {
      "constant": false,
      "inputs": [
        {
          "name": "_id",
          "type": "uint256"
        }
      ],
      "name": "confirmOpen",
      "outputs": [],
      "payable": true,
      "stateMutability": "payable",
      "type": "function"
    },
    {
      "constant": false,
      "inputs": [
        {
          "name": "_id",
          "type": "uint256"
        }
      ],
      "name": "timeoutOpen",
      "outputs": [],
      "payable": false,
      "stateMutability": "nonpayable",
      "type": "function"
    },
    {
      "constant": false,
      "inputs": [
        {
          "name": "_id",
          "type": "uint256"
        },
        {
          "name": "_version",
          "type": "uint256"
        },
        {
          "name": "_balanceA",
          "type": "uint256"
        },
        {
          "name": "_balanceB",
          "type": "uint256"
        },
        {
          "name": "_sigA",
          "type": "bytes"
        },
        {
          "name": "_sigB",
          "type": "bytes"
        }
      ],
      "name": "close",
      "outputs": [],
      "payable": false,
      "stateMutability": "nonpayable",
      "type": "function"
    },
    {
      "constant": false,
      "inputs": [
        {
          "name": "_id",
          "type": "uint256"
        }
      ],
      "name": "closeInitialBalance",
      "outputs": [],
      "payable": false,
      "stateMutability": "nonpayable",
      "type": "function"
    },
    {
      "constant": false,
      "inputs": [
        {
          "name": "_id",
          "type": "uint256"
        }
      ],
      "name": "confirmClose",
      "outputs": [],
      "payable": false,
      "stateMutability": "nonpayable",
      "type": "function"
    },
    {
      "constant": false,
      "inputs": [
        {
          "name": "_id",
          "type": "uint256"
        },
        {
          "name": "_version",
          "type": "uint256"
        },
        {
          "name": "_balanceA",
          "type": "uint256"
        },
        {
          "name": "_balanceB",
          "type": "uint256"
        },
        {
          "name": "_sigA",
          "type": "bytes"
        },
        {
          "name": "_sigB",
          "type": "bytes"
        }
      ],
      "name": "disputedClose",
      "outputs": [],
      "payable": false,
      "stateMutability": "nonpayable",
      "type": "function"
    },
    {
      "constant": false,
      "inputs": [
        {
          "name": "_id",
          "type": "uint256"
        }
      ],
      "name": "timeoutClose",
      "outputs": [],
      "payable": false,
      "stateMutability": "nonpayable",
      "type": "function"
    },
    {
      "constant": false,
      "inputs": [
        {
          "name": "_id",
          "type": "uint256"
        }
      ],
      "name": "withdraw",
      "outputs": [],
      "payable": false,
      "stateMutability": "nonpayable",
      "type": "function"
    },
    {
      "constant": true,
      "inputs": [
        {
          "name": "_id",
          "type": "uint256"
        }
      ],
      "name": "getChannel",
      "outputs": [
        {
          "components": [
            {
              "name": "state",
              "type": "uint8"
            },
            {
              "name": "timeout",
              "type": "uint48"
            },
            {
              "name": "timeoutDuration",
              "type": "uint48"
            },
            {
              "components": [
                {
                  "name": "addr",
                  "type": "address"
                },
                {
                  "name": "balance",
                  "type": "uint256"
                }
              ],
              "name": "A",
              "type": "tuple"
            },
            {
              "components": [
                {
                  "name": "addr",
                  "type": "address"
                },
                {
                  "name": "balance",
                  "type": "uint256"
                }
              ],
              "name": "B",
              "type": "tuple"
            },
            {
              "name": "version",
              "type": "uint256"
            },
            {
              "name": "requiredBalanceConfirmer",
              "type": "uint256"
            }
          ],
          "name": "",
          "type": "tuple"
        }
      ],
      "payable": false,
      "stateMutability": "view",
      "type": "function"
    },
    {
      "constant": true,
      "inputs": [
        {
          "name": "_A",
          "type": "address"
        },
        {
          "name": "_B",
          "type": "address"
        },
        {
          "name": "_idSeed",
          "type": "uint256"
        }
      ],
      "name": "genId",
      "outputs": [
        {
          "name": "",
          "type": "uint256"
        }
      ],
      "payable": false,
      "stateMutability": "pure",
      "type": "function"
    },
    {
      "constant": true,
      "inputs": [
        {
          "name": "_id",
          "type": "uint256"
        }
      ],
      "name": "exists",
      "outputs": [
        {
          "name": "",
          "type": "bool"
        }
      ],
      "payable": false,
      "stateMutability": "view",
      "type": "function"
    },
    {
      "constant": true,
      "inputs": [
        {
          "name": "_id",
          "type": "uint256"
        }
      ],
      "name": "initiator",
      "outputs": [
        {
          "name": "",
          "type": "address"
        }
      ],
      "payable": false,
      "stateMutability": "view",
      "type": "function"
    },
    {
      "constant": true,
      "inputs": [
        {
          "name": "_id",
          "type": "uint256"
        }
      ],
      "name": "confirmer",
      "outputs": [
        {
          "name": "",
          "type": "address"
        }
      ],
      "payable": false,
      "stateMutability": "view",
      "type": "function"
    },
    {
      "constant": true,
      "inputs": [
        {
          "name": "_id",
          "type": "uint256"
        },
        {
          "name": "_version",
          "type": "uint256"
        },
        {
          "name": "_balanceA",
          "type": "uint256"
        },
        {
          "name": "_balanceB",
          "type": "uint256"
        }
      ],
      "name": "ethSignedMsgHash",
      "outputs": [
        {
          "name": "",
          "type": "bytes32"
        }
      ],
      "payable": false,
      "stateMutability": "pure",
      "type": "function"
    }
  ],
  "bytecode": "0x608060405234801561001057600080fd5b50612f6c806100206000396000f3fe608060405260043610610105576000357c0100000000000000000000000000000000000000000000000000000000900480635940c655116100a7578063cdcdeb7311610076578063cdcdeb7314610324578063cec9370814610340578063d917b0a614610369578063e97bd1c7146103a657610105565b80635940c65514610279578063882d5f7a1461029557806389d8f0d7146102be578063ba889e95146102e757610105565b8063296865a6116100e3578063296865a6146101ad5780632e1a7d4d146101d65780634a2cef05146101ff5780634f558e791461023c57610105565b806310df54a01461010a578063206a5fe81461014757806320eb8b2a14610170575b600080fd5b34801561011657600080fd5b50610131600480360361012c91908101906124c6565b6103cf565b60405161013e9190612e18565b60405180910390f35b34801561015357600080fd5b5061016e60048036036101699190810190612552565b61057d565b005b34801561017c57600080fd5b50610197600480360361019291908101906124c6565b610882565b6040516101a49190612c07565b60405180910390f35b3480156101b957600080fd5b506101d460048036036101cf91908101906124c6565b610926565b005b3480156101e257600080fd5b506101fd60048036036101f891908101906124c6565b610acb565b005b34801561020b57600080fd5b50610226600480360361022191908101906124c6565b610ddf565b6040516102339190612c07565b60405180910390f35b34801561024857600080fd5b50610263600480360361025e91908101906124c6565b610e83565b6040516102709190612c22565b60405180910390f35b610293600480360361028e91908101906124c6565b610ec8565b005b3480156102a157600080fd5b506102bc60048036036102b791908101906124c6565b611162565b005b3480156102ca57600080fd5b506102e560048036036102e091908101906124c6565b6113be565b005b3480156102f357600080fd5b5061030e60048036036103099190810190612477565b61160b565b60405161031b9190612e34565b60405180910390f35b61033e60048036036103399190810190612615565b6116c7565b005b34801561034c57600080fd5b5061036760048036036103629190810190612552565b6118bd565b005b34801561037557600080fd5b50610390600480360361038b91908101906124ef565b611b0b565b60405161039d9190612c3d565b60405180910390f35b3480156103b257600080fd5b506103cd60048036036103c891908101906124c6565b611b5e565b005b6103d7612359565b60008083815260200190815260200160002060e060405190810160405290816000820160009054906101000a900460ff16600681111561041357fe5b600681111561041e57fe5b81526020016000820160019054906101000a900465ffffffffffff1665ffffffffffff1665ffffffffffff1681526020016000820160079054906101000a900465ffffffffffff1665ffffffffffff1665ffffffffffff168152602001600182016040805190810160405290816000820160009054906101000a900473ffffffffffffffffffffffffffffffffffffffff1673ffffffffffffffffffffffffffffffffffffffff1673ffffffffffffffffffffffffffffffffffffffff1681526020016001820154815250508152602001600382016040805190810160405290816000820160009054906101000a900473ffffffffffffffffffffffffffffffffffffffff1673ffffffffffffffffffffffffffffffffffffffff1673ffffffffffffffffffffffffffffffffffffffff1681526020016001820154815250508152602001600582015481526020016006820154815250509050919050565b87600080600083815260200190815260200160002060000160009054906101000a900460ff169050600360068111156105b257fe5b8160068111156105be57fe5b14806105e05750600460068111156105d257fe5b8160068111156105de57fe5b145b1515610621576040517f08c379a000000000000000000000000000000000000000000000000000000000815260040161061890612c58565b60405180910390fd5b893373ffffffffffffffffffffffffffffffffffffffff1661064282610ddf565b73ffffffffffffffffffffffffffffffffffffffff1614151561069a576040517f08c379a000000000000000000000000000000000000000000000000000000000815260040161069190612d78565b60405180910390fd5b8a4260008083815260200190815260200160002060000160019054906101000a900465ffffffffffff1665ffffffffffff1611151561070e576040517f08c379a000000000000000000000000000000000000000000000000000000000815260040161070590612c98565b60405180910390fd5b6107a48c8c8c8c8c8c8080601f016020809104026020016040519081016040528093929190818152602001838380828437600081840152601f19601f820116905080830192505050505050508b8b8080601f016020809104026020016040519081016040528093929190818152602001838380828437600081840152601f19601f82011690508083019250505050505050611dba565b6107b08c8c8c8c611f2a565b60008060008e8152602001908152602001600020905060058160000160006101000a81548160ff021916908360068111156107e757fe5b02179055503373ffffffffffffffffffffffffffffffffffffffff1661080c8e610882565b73ffffffffffffffffffffffffffffffffffffffff168e7ff08d1f935b2d8bdb50131e04e18f7658be648714c2f219387a8d5db7078f08cf84600101600101548560030160010154604051610862929190612e4f565b60405180910390a46108738d610acb565b50505050505050505050505050565b6000806000808481526020019081526020016000209050600460068111156108a657fe5b8160000160009054906101000a900460ff1660068111156108c357fe5b146108f5578060010160000160009054906101000a900473ffffffffffffffffffffffffffffffffffffffff1661091e565b8060030160000160009054906101000a900473ffffffffffffffffffffffffffffffffffffffff165b915050919050565b80600280600681111561093557fe5b60008084815260200190815260200160002060000160009054906101000a900460ff16600681111561096357fe5b1415156109a5576040517f08c379a000000000000000000000000000000000000000000000000000000000815260040161099c90612d18565b60405180910390fd5b823373ffffffffffffffffffffffffffffffffffffffff1660008083815260200190815260200160002060010160000160009054906101000a900473ffffffffffffffffffffffffffffffffffffffff1673ffffffffffffffffffffffffffffffffffffffff161480610a7b57503373ffffffffffffffffffffffffffffffffffffffff1660008083815260200190815260200160002060030160000160009054906101000a900473ffffffffffffffffffffffffffffffffffffffff1673ffffffffffffffffffffffffffffffffffffffff16145b1515610abc576040517f08c379a0000000000000000000000000000000000000000000000000000000008152600401610ab390612d38565b60405180910390fd5b610ac584612027565b50505050565b806005806006811115610ada57fe5b60008084815260200190815260200160002060000160009054906101000a900460ff166006811115610b0857fe5b141515610b4a576040517f08c379a0000000000000000000000000000000000000000000000000000000008152600401610b4190612d18565b60405180910390fd5b823373ffffffffffffffffffffffffffffffffffffffff1660008083815260200190815260200160002060010160000160009054906101000a900473ffffffffffffffffffffffffffffffffffffffff1673ffffffffffffffffffffffffffffffffffffffff161480610c2057503373ffffffffffffffffffffffffffffffffffffffff1660008083815260200190815260200160002060030160000160009054906101000a900473ffffffffffffffffffffffffffffffffffffffff1673ffffffffffffffffffffffffffffffffffffffff16145b1515610c61576040517f08c379a0000000000000000000000000000000000000000000000000000000008152600401610c5890612d38565b60405180910390fd5b6000806000868152602001908152602001600020905060008160010160000160009054906101000a900473ffffffffffffffffffffffffffffffffffffffff1673ffffffffffffffffffffffffffffffffffffffff163373ffffffffffffffffffffffffffffffffffffffff1614610cdc5781600301610ce1565b816001015b90506000816001015490506000826001018190555060008360010160010154148015610d14575060008360030160010154145b15610d405760068360000160006101000a81548160ff02191690836006811115610d3a57fe5b02179055505b3373ffffffffffffffffffffffffffffffffffffffff16877f37e8063b72a944a76de602f32b82fd8c2a1c6f99564c727ffaf913c7762cd42083604051610d879190612e34565b60405180910390a33373ffffffffffffffffffffffffffffffffffffffff166108fc829081150290604051600060405180830381858888f19350505050158015610dd5573d6000803e3d6000fd5b5050505050505050565b600080600080848152602001908152602001600020905060046006811115610e0357fe5b8160000160009054906101000a900460ff166006811115610e2057fe5b14610e52578060030160000160009054906101000a900473ffffffffffffffffffffffffffffffffffffffff16610e7b565b8060010160000160009054906101000a900473ffffffffffffffffffffffffffffffffffffffff165b915050919050565b6000806006811115610e9157fe5b60008084815260200190815260200160002060000160009054906101000a900460ff166006811115610ebf57fe5b14159050919050565b806001806006811115610ed757fe5b60008084815260200190815260200160002060000160009054906101000a900460ff166006811115610f0557fe5b141515610f47576040517f08c379a0000000000000000000000000000000000000000000000000000000008152600401610f3e90612d18565b60405180910390fd5b823373ffffffffffffffffffffffffffffffffffffffff16610f6882610ddf565b73ffffffffffffffffffffffffffffffffffffffff16141515610fc0576040517f08c379a0000000000000000000000000000000000000000000000000000000008152600401610fb790612d78565b60405180910390fd5b834260008083815260200190815260200160002060000160019054906101000a900465ffffffffffff1665ffffffffffff16111515611034576040517f08c379a000000000000000000000000000000000000000000000000000000000815260040161102b90612c98565b60405180910390fd5b60008060008781526020019081526020016000209050806006015434141515611092576040517f08c379a000000000000000000000000000000000000000000000000000000000815260040161108990612c78565b60405180910390fd5b34816003016001018190555060028160000160006101000a81548160ff021916908360068111156110bf57fe5b02179055503373ffffffffffffffffffffffffffffffffffffffff168160010160000160009054906101000a900473ffffffffffffffffffffffffffffffffffffffff1673ffffffffffffffffffffffffffffffffffffffff16877f4e6f9ddc9d4a848413875c0c5799ca275e4679f2db01bcef8cde7a12ddc9e260846001016001015434604051611152929190612e4f565b60405180910390a4505050505050565b80600080600083815260200190815260200160002060000160009054906101000a900460ff1690506003600681111561119757fe5b8160068111156111a357fe5b14806111c55750600460068111156111b757fe5b8160068111156111c357fe5b145b1515611206576040517f08c379a00000000000000000000000000000000000000000000000000000000081526004016111fd90612c58565b60405180910390fd5b823373ffffffffffffffffffffffffffffffffffffffff1661122782610ddf565b73ffffffffffffffffffffffffffffffffffffffff1614151561127f576040517f08c379a000000000000000000000000000000000000000000000000000000000815260040161127690612d78565b60405180910390fd5b834260008083815260200190815260200160002060000160019054906101000a900465ffffffffffff1665ffffffffffff161115156112f3576040517f08c379a00000000000000000000000000000000000000000000000000000000081526004016112ea90612c98565b60405180910390fd5b6000806000878152602001908152602001600020905060058160000160006101000a81548160ff0219169083600681111561132a57fe5b02179055503373ffffffffffffffffffffffffffffffffffffffff1661134f87610882565b73ffffffffffffffffffffffffffffffffffffffff16877fb13c1402d317c30a8889e093787ee2afe1a35dbec6645dcd8fa2c4079459a374846001016001015485600301600101546040516113a5929190612e4f565b60405180910390a46113b686610acb565b505050505050565b8060018060068111156113cd57fe5b60008084815260200190815260200160002060000160009054906101000a900460ff1660068111156113fb57fe5b14151561143d576040517f08c379a000000000000000000000000000000000000000000000000000000000815260040161143490612d18565b60405180910390fd5b823373ffffffffffffffffffffffffffffffffffffffff1661145e82610882565b73ffffffffffffffffffffffffffffffffffffffff161415156114b6576040517f08c379a00000000000000000000000000000000000000000000000000000000081526004016114ad90612cb8565b60405180910390fd5b834260008083815260200190815260200160002060000160019054906101000a900465ffffffffffff1665ffffffffffff1610151561152a576040517f08c379a000000000000000000000000000000000000000000000000000000000815260040161152190612dd8565b60405180910390fd5b6000806000878152602001908152602001600020905060058160000160006101000a81548160ff0219169083600681111561156157fe5b02179055508060030160000160009054906101000a900473ffffffffffffffffffffffffffffffffffffffff1673ffffffffffffffffffffffffffffffffffffffff163373ffffffffffffffffffffffffffffffffffffffff16877f39e9becbd5976f04968557774f8603bd61e35c93d7100bd9fb4c6a43ae713f1884600101600101546040516115f29190612e34565b60405180910390a461160386610acb565b505050505050565b6000838383604051602001808473ffffffffffffffffffffffffffffffffffffffff1673ffffffffffffffffffffffffffffffffffffffff166c010000000000000000000000000281526014018373ffffffffffffffffffffffffffffffffffffffff1673ffffffffffffffffffffffffffffffffffffffff166c010000000000000000000000000281526014018281526020019350505050604051602081830303815290604052805190602001206001900490509392505050565b60006116d433848761160b565b905060008060008381526020019081526020016000209050600060068111156116f957fe5b8160000160009054906101000a900460ff16600681111561171657fe5b141515611758576040517f08c379a000000000000000000000000000000000000000000000000000000000815260040161174f90612df8565b60405180910390fd5b338160010160000160006101000a81548173ffffffffffffffffffffffffffffffffffffffff021916908373ffffffffffffffffffffffffffffffffffffffff160217905550348160010160010181905550838160030160000160006101000a81548173ffffffffffffffffffffffffffffffffffffffff021916908373ffffffffffffffffffffffffffffffffffffffff160217905550828160060181905550848160000160076101000a81548165ffffffffffff021916908365ffffffffffff16021790555061182981612150565b60018160000160006101000a81548160ff0219169083600681111561184a57fe5b02179055508373ffffffffffffffffffffffffffffffffffffffff163373ffffffffffffffffffffffffffffffffffffffff16837f89bad7c328f10f43b2b8d28755dfc9b26bb75f438711d4c015143b273d9b824c346040516118ad9190612e34565b60405180910390a4505050505050565b8760028060068111156118cc57fe5b60008084815260200190815260200160002060000160009054906101000a900460ff1660068111156118fa57fe5b14151561193c576040517f08c379a000000000000000000000000000000000000000000000000000000000815260040161193390612d18565b60405180910390fd5b893373ffffffffffffffffffffffffffffffffffffffff1660008083815260200190815260200160002060010160000160009054906101000a900473ffffffffffffffffffffffffffffffffffffffff1673ffffffffffffffffffffffffffffffffffffffff161480611a1257503373ffffffffffffffffffffffffffffffffffffffff1660008083815260200190815260200160002060030160000160009054906101000a900473ffffffffffffffffffffffffffffffffffffffff1673ffffffffffffffffffffffffffffffffffffffff16145b1515611a53576040517f08c379a0000000000000000000000000000000000000000000000000000000008152600401611a4a90612d38565b60405180910390fd5b611ae98b8b8b8b8b8b8080601f016020809104026020016040519081016040528093929190818152602001838380828437600081840152601f19601f820116905080830192505050505050508a8a8080601f016020809104026020016040519081016040528093929190818152602001838380828437600081840152601f19601f82011690508083019250505050505050611dba565b611af58b8b8b8b611f2a565b611afe8b612027565b5050505050505050505050565b6000611b548585858560405160200180858152602001848152602001838152602001828152602001945050505050604051602081830303815290604052805190602001206121fc565b9050949350505050565b80600080600083815260200190815260200160002060000160009054906101000a900460ff16905060036006811115611b9357fe5b816006811115611b9f57fe5b1480611bc1575060046006811115611bb357fe5b816006811115611bbf57fe5b145b1515611c02576040517f08c379a0000000000000000000000000000000000000000000000000000000008152600401611bf990612c58565b60405180910390fd5b823373ffffffffffffffffffffffffffffffffffffffff16611c2382610882565b73ffffffffffffffffffffffffffffffffffffffff16141515611c7b576040517f08c379a0000000000000000000000000000000000000000000000000000000008152600401611c7290612cb8565b60405180910390fd5b834260008083815260200190815260200160002060000160019054906101000a900465ffffffffffff1665ffffffffffff16101515611cef576040517f08c379a0000000000000000000000000000000000000000000000000000000008152600401611ce690612dd8565b60405180910390fd5b6000806000878152602001908152602001600020905060058160000160006101000a81548160ff02191690836006811115611d2657fe5b0217905550611d3486610ddf565b73ffffffffffffffffffffffffffffffffffffffff163373ffffffffffffffffffffffffffffffffffffffff16877f8772c1005128823a0eac111a613771057cd3f9e2c4620cbc94d2d690c326919884600101600101548560030160010154604051611da1929190612e4f565b60405180910390a4611db286610acb565b505050505050565b600080600088815260200190815260200160002090506000611dde88888888611b0b565b90508160010160000160009054906101000a900473ffffffffffffffffffffffffffffffffffffffff1673ffffffffffffffffffffffffffffffffffffffff16611e288286612254565b73ffffffffffffffffffffffffffffffffffffffff16141515611e80576040517f08c379a0000000000000000000000000000000000000000000000000000000008152600401611e7790612d98565b60405180910390fd5b8160030160000160009054906101000a900473ffffffffffffffffffffffffffffffffffffffff1673ffffffffffffffffffffffffffffffffffffffff16611ec88285612254565b73ffffffffffffffffffffffffffffffffffffffff16141515611f20576040517f08c379a0000000000000000000000000000000000000000000000000000000008152600401611f1790612cd8565b60405180910390fd5b5050505050505050565b60008060008681526020019081526020016000209050838160050154101515611f88576040517f08c379a0000000000000000000000000000000000000000000000000000000008152600401611f7f90612cf8565b60405180910390fd5b611fa98160030160010154826001016001015461233890919063ffffffff16565b611fbc838561233890919063ffffffff16565b11151515611fff576040517f08c379a0000000000000000000000000000000000000000000000000000000008152600401611ff690612db8565b60405180910390fd5b8381600501819055508281600101600101819055508181600301600101819055505050505050565b6000806000838152602001908152602001600020905061204681612150565b8060010160000160009054906101000a900473ffffffffffffffffffffffffffffffffffffffff1673ffffffffffffffffffffffffffffffffffffffff163373ffffffffffffffffffffffffffffffffffffffff16146120a75760046120aa565b60035b8160000160006101000a81548160ff021916908360068111156120c957fe5b02179055506120d782610ddf565b73ffffffffffffffffffffffffffffffffffffffff163373ffffffffffffffffffffffffffffffffffffffff16837febcd6124309d9e84759939e9e9863ae023c5ddff822b9be3038bf0e63b33ae7d84600101600101548560030160010154604051612144929190612e4f565b60405180910390a45050565b8060000160079054906101000a900465ffffffffffff1642018160000160016101000a81548165ffffffffffff021916908365ffffffffffff1602179055504265ffffffffffff168160000160019054906101000a900465ffffffffffff1665ffffffffffff161115156121f9576040517f08c379a00000000000000000000000000000000000000000000000000000000081526004016121f090612d58565b60405180910390fd5b50565b60008160405160200180807f19457468657265756d205369676e6564204d6573736167653a0a333200000000815250601c01828152602001915050604051602081830303815290604052805190602001209050919050565b600080600080604185511415156122715760009350505050612332565b6020850151925060408501519150606085015160001a9050601b8160ff16101561229c57601b810190505b601b8160ff16141580156122b45750601c8160ff1614155b156122c55760009350505050612332565b60018682858560405160008152602001604052604051808581526020018460ff1660ff1681526020018381526020018281526020019450505050506020604051602081039080840390855afa158015612322573d6000803e3d6000fd5b5050506020604051035193505050505b92915050565b600080828401905083811015151561234f57600080fd5b8091505092915050565b610120604051908101604052806000600681111561237357fe5b8152602001600065ffffffffffff168152602001600065ffffffffffff16815260200161239e6123bf565b81526020016123ab6123bf565b815260200160008152602001600081525090565b6040805190810160405280600073ffffffffffffffffffffffffffffffffffffffff168152602001600081525090565b60006123fb8235612ef2565b905092915050565b60008083601f840112151561241757600080fd5b8235905067ffffffffffffffff81111561243057600080fd5b60208301915083600182028301111561244857600080fd5b9250929050565b600061245b8235612f04565b905092915050565b600061246f8235612f0e565b905092915050565b60008060006060848603121561248c57600080fd5b600061249a868287016123ef565b93505060206124ab868287016123ef565b92505060406124bc8682870161244f565b9150509250925092565b6000602082840312156124d857600080fd5b60006124e68482850161244f565b91505092915050565b6000806000806080858703121561250557600080fd5b60006125138782880161244f565b94505060206125248782880161244f565b93505060406125358782880161244f565b92505060606125468782880161244f565b91505092959194509250565b60008060008060008060008060c0898b03121561256e57600080fd5b600061257c8b828c0161244f565b985050602061258d8b828c0161244f565b975050604061259e8b828c0161244f565b96505060606125af8b828c0161244f565b955050608089013567ffffffffffffffff8111156125cc57600080fd5b6125d88b828c01612403565b945094505060a089013567ffffffffffffffff8111156125f757600080fd5b6126038b828c01612403565b92509250509295985092959890939650565b6000806000806080858703121561262b57600080fd5b60006126398782880161244f565b945050602061264a87828801612463565b935050604061265b878288016123ef565b925050606061266c8782880161244f565b91505092959194509250565b61268181612e78565b82525050565b61269081612e78565b82525050565b61269f81612e8a565b82525050565b6126ae81612e96565b82525050565b6126bd81612f20565b82525050565b6000601d82527f4368616e6e656c206e6f7420696e20737461746520436c6f73696e672e0000006020830152604082019050919050565b6000602482527f57726f6e6720616d6f756e742066726f6d206f70656e696e6720636f6e66697260208301527f6d65722e000000000000000000000000000000000000000000000000000000006040830152606082019050919050565b6000601d82527f436f6e6669726d6174696f6e2074696d656f757420726561636865642e0000006020830152604082019050919050565b6000602c82527f43616c6c6572206973206e6f742074686520696e69746961746f72206f66207460208301527f686973206368616e6e656c2e00000000000000000000000000000000000000006040830152606082019050919050565b6000603682527f5369676e617475726520766572696669636174696f6e206f66206368616e6e6560208301527f6c20757064617465206661696c656420666f7220422e000000000000000000006040830152606082019050919050565b6000602b82527f5570646174652076657273696f6e206973206e6f74206772656174657220746860208301527f616e2063757272656e742e0000000000000000000000000000000000000000006040830152606082019050919050565b6000601782527f4368616e6e656c20696e2077726f6e672073746174652e0000000000000000006020830152604082019050919050565b6000602682527f43616c6c6572206973206e6f742061207061727479206f66207468697320636860208301527f616e6e656c2e00000000000000000000000000000000000000000000000000006040830152606082019050919050565b6000601782527f426f6775732074696d656f7574206475726174696f6e2e0000000000000000006020830152604082019050919050565b6000602c82527f43616c6c6572206973206e6f742074686520636f6e6669726d6572206f66207460208301527f686973206368616e6e656c2e00000000000000000000000000000000000000006040830152606082019050919050565b6000603682527f5369676e617475726520766572696669636174696f6e206f66206368616e6e6560208301527f6c20757064617465206661696c656420666f7220412e000000000000000000006040830152606082019050919050565b6000603282527f55706461746520746f74616c2062616c616e636520677265617465722074686160208301527f6e2063757272656e742062616c616e63652e00000000000000000000000000006040830152606082019050919050565b6000602582527f436f6e6669726d6174696f6e2074696d656f7574206e6f74207265616368656460208301527f207965742e0000000000000000000000000000000000000000000000000000006040830152606082019050919050565b6000601782527f4368616e6e656c20616c7265616479206578697374732e0000000000000000006020830152604082019050919050565b61012082016000820151612b3260008501826126b4565b506020820151612b456020850182612bf8565b506040820151612b586040850182612bf8565b506060820151612b6b6060850182612bab565b506080820151612b7e60a0850182612bab565b5060a0820151612b9160e0850182612bda565b5060c0820151612ba5610100850182612bda565b50505050565b604082016000820151612bc16000850182612678565b506020820151612bd46020850182612bda565b50505050565b612be381612ed6565b82525050565b612bf281612ed6565b82525050565b612c0181612ee0565b82525050565b6000602082019050612c1c6000830184612687565b92915050565b6000602082019050612c376000830184612696565b92915050565b6000602082019050612c5260008301846126a5565b92915050565b60006020820190508181036000830152612c71816126c3565b9050919050565b60006020820190508181036000830152612c91816126fa565b9050919050565b60006020820190508181036000830152612cb181612757565b9050919050565b60006020820190508181036000830152612cd18161278e565b9050919050565b60006020820190508181036000830152612cf1816127eb565b9050919050565b60006020820190508181036000830152612d1181612848565b9050919050565b60006020820190508181036000830152612d31816128a5565b9050919050565b60006020820190508181036000830152612d51816128dc565b9050919050565b60006020820190508181036000830152612d7181612939565b9050919050565b60006020820190508181036000830152612d9181612970565b9050919050565b60006020820190508181036000830152612db1816129cd565b9050919050565b60006020820190508181036000830152612dd181612a2a565b9050919050565b60006020820190508181036000830152612df181612a87565b9050919050565b60006020820190508181036000830152612e1181612ae4565b9050919050565b600061012082019050612e2e6000830184612b1b565b92915050565b6000602082019050612e496000830184612be9565b92915050565b6000604082019050612e646000830185612be9565b612e716020830184612be9565b9392505050565b6000612e8382612eb6565b9050919050565b60008115159050919050565b6000819050919050565b6000600782101515612eae57fe5b819050919050565b600073ffffffffffffffffffffffffffffffffffffffff82169050919050565b6000819050919050565b600065ffffffffffff82169050919050565b6000612efd82612eb6565b9050919050565b6000819050919050565b600065ffffffffffff82169050919050565b6000612f2b82612ea0565b905091905056fea265627a7a72305820f0899faeef76b9b212987fa71bcbf2ba80e0accbe57e49a5eb4d0aec78b8ad0d6c6578706572696d656e74616cf50037",
  "source": "pragma solidity ^0.5.2;\npragma experimental ABIEncoderV2;\n\nimport \"openzeppelin-solidity/contracts/math/SafeMath.sol\";\nimport \"openzeppelin-solidity/contracts/cryptography/ECDSA.sol\";\n\n/**\n * @title Perun Ledger Payment Channels\n * @author Sebastian Stammler, Marius van der Wijden\n * @notice Single-deployment ledger payment channels contract.\n *   Allows two parties to block ether in a payment channel and execute\n *   off-chain transactions within this channel.\n * @dev This is a single-deployment version of payment channels, where each\n *   channel state resides at its own uint id in the channels mapping.\n *   The channel initiator is sometimes referred to as A, the confirmer as B.\n */\ncontract LedgerChannels {\n    using SafeMath for uint256;\n\n    enum State { Null, Opening, Open, ClosingByA, ClosingByB, Closed, Withdrawn }\n\n    struct Party {\n        address addr;\n        uint balance;\n    }\n\n    /**\n     * @dev LedgerChannel holds the state of a channel.\n     *   The initiator's address is stored at A, the confirmer's at B.\n     *   The channel-blocked money of X is stored in X.balance\n     *   When opening the channel, the required amount to deposit by the\n     *   confirmer is saved at requiredBalanceConfirmer.\n     *   We cannot save it at B.balance directly, otherwise there would be\n     *   possible a withdraw() attack after timeoutOpen()\n     */\n    struct LedgerChannel {\n        State state;\n        uint48 timeout; // absolute timeout of pending confirmation for open or close\n        uint48 timeoutDuration; // relative timeout\n        Party A;\n        Party B;\n        uint version;\n        uint requiredBalanceConfirmer;\n    }\n\n    /// @dev mapping from channel id to its state\n    mapping(uint => LedgerChannel) channels;\n\n    event Opening(uint indexed id, address indexed initiator, address indexed confirmer,\n        uint balanceA);\n    event OpenTimeout(uint indexed id, address indexed initiator, address indexed confirmer,\n        uint balanceA);\n    event Open(uint indexed id, address indexed initiator, address indexed confirmer,\n        uint balanceA, uint balanceB);\n    event Closing(uint indexed id, address indexed closer, address indexed confirmer,\n        uint finalBalanceA, uint finalBalanceB);\n    event Closed(uint indexed id, address indexed closer, address indexed confirmer,\n        uint finalBalanceA, uint finalBalanceB);\n    event ClosedTimeout(uint indexed id, address indexed closer, address indexed confirmer,\n        uint finalBalanceA, uint finalBalanceB);\n    event ClosedDisputed(uint indexed id, address indexed closer, address indexed confirmer,\n        uint finalBalanceA, uint finalBalanceB);\n    event Withdrawal(uint indexed id, address indexed by, uint balance);\n\n    /**\n     * @dev All public functions have to use the inState() modifier to prevent\n     * invalid state transitions. Besides open(), they also have to use an\n     * onlyX() modifer to only let allowed parties call. If they depend on a\n     * timeout constraint, the have to use a within/afterTimeout() modifier.\n     */\n\n    modifier onlyParty(uint _id) {\n        require(channels[_id].A.addr == msg.sender || channels[_id].B.addr == msg.sender,\n            \"Caller is not a party of this channel.\");\n        _;\n    }\n\n    modifier onlyInitiator(uint _id) {\n        require(initiator(_id) == msg.sender,\n            \"Caller is not the initiator of this channel.\");\n        _;\n    }\n\n    modifier onlyConfirmer(uint _id) {\n        require(confirmer(_id) == msg.sender,\n            \"Caller is not the confirmer of this channel.\");\n        _;\n    }\n\n    modifier inState(uint _id, State _state) {\n        require(channels[_id].state == _state, \"Channel in wrong state.\");\n        _;\n    }\n\n    modifier inStateClosing(uint _id) {\n        State state = channels[_id].state;\n        require(state == State.ClosingByA || state == State.ClosingByB,\n            \"Channel not in state Closing.\");\n        _;\n    }\n\n    modifier withinTimeout(uint _id) {\n        require(channels[_id].timeout > now, \"Confirmation timeout reached.\");\n        _;\n    }\n\n    modifier afterTimeout(uint _id) {\n        require(channels[_id].timeout < now, \"Confirmation timeout not reached yet.\");\n        _;\n    }\n\n    /**\n     * @notice opens request to open a payment channel by the sender of the tx.\n     *   Sent ether is blocked in the opening channel as A's balance.\n     *   The id of this channel will be genId(msg.sender, _counterParty, _idSeed)\n     * @param _idSeed seed that is used to calculate the channel id, which will\n     *   be genId(msg.sender, _counterParty, _idSeed)\n     * @param _timeoutDuration duration of confirmations of channel opening\n     *   and closing\n     * @param _counterParty The channel's other side, who needs to confirm the channel.\n     * @param _counterBalance The other side's required balance.\n     */\n    function open(uint _idSeed, uint48 _timeoutDuration,\n        address _counterParty, uint _counterBalance)\n        payable external\n    {\n        uint id = genId(msg.sender, _counterParty, _idSeed);\n\n        LedgerChannel storage chan = channels[id];\n        require(chan.state == State.Null, \"Channel already exists.\");\n        chan.A.addr = msg.sender;\n        chan.A.balance = msg.value;\n        chan.B.addr = _counterParty;\n        chan.requiredBalanceConfirmer = _counterBalance;\n        chan.timeoutDuration = _timeoutDuration;\n        resetTimeout(chan);\n        chan.state = State.Opening;\n        emit Opening(id, msg.sender, _counterParty, msg.value);\n    }\n\n    function confirmOpen(uint _id) payable external\n        inState(_id, State.Opening) onlyConfirmer(_id) withinTimeout(_id)\n    {\n        LedgerChannel storage chan = channels[_id];\n        require(msg.value == chan.requiredBalanceConfirmer,\n            \"Wrong amount from opening confirmer.\");\n        chan.B.balance = msg.value;\n        chan.state = State.Open;\n        emit Open(_id, chan.A.addr, msg.sender, chan.A.balance, msg.value);\n    }\n\n    function timeoutOpen(uint _id) external\n        inState(_id, State.Opening) onlyInitiator(_id) afterTimeout(_id)\n    {\n        LedgerChannel storage chan = channels[_id];\n        chan.state = State.Closed;\n        emit OpenTimeout(_id, msg.sender, chan.B.addr, chan.A.balance);\n        withdraw(_id);\n    }\n\n    function close(uint _id, uint _version, uint _balanceA, uint _balanceB,\n        bytes calldata _sigA, bytes calldata _sigB) external\n        inState(_id, State.Open) onlyParty(_id)\n    {\n        verifySigs(_id, _version, _balanceA, _balanceB, _sigA, _sigB);\n        update(_id, _version, _balanceA, _balanceB);\n\n        closeCurrentBalance(_id);\n    }\n\n    /**\n     * @notice Initiates closing of channel _id without updating the initial\n     *   balance. This is like close() without the udpate.\n     *   Transitions: Open -> ClosingByX\n     * @param _id channel id\n     */\n    function closeInitialBalance(uint _id) external inState(_id, State.Open) onlyParty(_id) {\n        closeCurrentBalance(_id);\n    }\n\n    function confirmClose(uint _id) external\n        inStateClosing(_id) onlyConfirmer(_id) withinTimeout(_id)\n    {\n        LedgerChannel storage chan = channels[_id];\n        chan.state = State.Closed;\n        emit Closed(_id, initiator(_id), msg.sender, chan.A.balance, chan.B.balance);\n        withdraw(_id);\n    }\n\n    function disputedClose(uint _id, uint _version, uint _balanceA, uint _balanceB,\n        bytes calldata _sigA, bytes calldata _sigB) external\n        inStateClosing(_id) onlyConfirmer(_id) withinTimeout(_id)\n    {\n        verifySigs(_id, _version, _balanceA, _balanceB, _sigA, _sigB);\n        update(_id, _version, _balanceA, _balanceB);\n\n        LedgerChannel storage chan = channels[_id];\n        chan.state = State.Closed;\n        emit ClosedDisputed(_id, initiator(_id), msg.sender, chan.A.balance, chan.B.balance);\n        withdraw(_id);\n    }\n\n    function timeoutClose(uint _id) external\n        inStateClosing(_id) onlyInitiator(_id) afterTimeout(_id)\n    {\n        LedgerChannel storage chan = channels[_id];\n        chan.state = State.Closed;\n        emit ClosedTimeout(_id, msg.sender, confirmer(_id), chan.A.balance, chan.B.balance);\n        withdraw(_id);\n    }\n\n    function withdraw(uint _id) public inState(_id, State.Closed) onlyParty(_id) {\n        LedgerChannel storage chan = channels[_id];\n        Party storage party  = (msg.sender == chan.A.addr) ? chan.A : chan.B;\n        uint balance = party.balance;\n        party.balance = 0;\n        if (chan.A.balance == 0 && chan.B.balance == 0) {\n            chan.state = State.Withdrawn;\n        }\n        emit Withdrawal(_id, msg.sender, balance);\n        msg.sender.transfer(balance); // party.addr is not payable\n    }\n\n    /**\n     * Public getter for LedgerChannels.\n     * Primarily used for testing.\n     */\n    function getChannel(uint _id) public view returns (LedgerChannel memory) {\n        return channels[_id];\n    }\n\n    /**\n     * @notice generates a deterministic channel id for a channel between _A and\n     *   _B, using seed _idSeed.\n     *   Channels are saved to the channels map at this id, having the effect\n     *   that a channel id can never belong to a different pair of channel\n     *   parties.\n     */\n    function genId(address _A, address _B, uint _idSeed) public pure returns (uint) {\n        return uint256(keccak256(abi.encodePacked(_A, _B, _idSeed)));\n    }\n\n    function exists(uint _id) public view returns (bool) {\n        return (channels[_id].state != State.Null);\n    }\n\n    function initiator(uint _id) public view returns (address) {\n        LedgerChannel storage chan = channels[_id];\n        return (chan.state == State.ClosingByB) ?  chan.B.addr : chan.A.addr;\n    }\n\n    function confirmer(uint _id) public view returns (address) {\n        LedgerChannel storage chan = channels[_id];\n        return (chan.state == State.ClosingByB) ?  chan.A.addr : chan.B.addr;\n    }\n\n    function resetTimeout(LedgerChannel storage chan) internal {\n        chan.timeout = uint48(now) + chan.timeoutDuration;\n        // SafeMath is only implemented for uint256 and would be inefficient here\n        require(chan.timeout > uint48(now), \"Bogus timeout duration.\");\n    }\n\n    function verifySigs(uint _id, uint _version, uint _balanceA, uint _balanceB,\n        bytes memory _sigA, bytes memory _sigB) internal view\n    {\n        LedgerChannel storage chan = channels[_id];\n        bytes32 hash = ethSignedMsgHash(_id, _version, _balanceA, _balanceB);\n        require(ECDSA.recover(hash, _sigA) == chan.A.addr,\n                \"Signature verification of channel update failed for A.\");\n        require(ECDSA.recover(hash, _sigB) == chan.B.addr,\n                \"Signature verification of channel update failed for B.\");\n    }\n\n    function update(uint _id, uint _version, uint _balanceA, uint _balanceB) internal {\n        LedgerChannel storage chan = channels[_id];\n        require(chan.version < _version, \"Update version is not greater than current.\");\n        require(_balanceA.add(_balanceB) <= chan.A.balance.add(chan.B.balance),\n            \"Update total balance greater than current balance.\");\n\n        chan.version = _version;\n        chan.A.balance = _balanceA;\n        chan.B.balance = _balanceB;\n    }\n\n    function closeCurrentBalance(uint _id) internal {\n        LedgerChannel storage chan = channels[_id];\n        resetTimeout(chan);\n        chan.state = (msg.sender == chan.A.addr) ? State.ClosingByA : State.ClosingByB;\n        emit Closing(_id, msg.sender, confirmer(_id), chan.A.balance, chan.B.balance);\n    }\n\n    /**\n     * @notice returns the channel update message to sign by each party.\n     *   Mimic this in your off-chain application.\n     *   Note that the channel id already encodes the parties of the channel, so\n     *   we don't need to add them to the message digest.\n     */\n    function ethSignedMsgHash(uint _id, uint _version, uint _balanceA, uint _balanceB)\n        public pure returns (bytes32)\n    {\n        return ECDSA.toEthSignedMessageHash(\n            keccak256(abi.encodePacked(\n                _id, _version, _balanceA, _balanceB)));\n    }\n\n    function verify(bytes32 _hash, bytes memory _sig, address _signer)\n        internal pure returns (bool)\n    {\n        return (_signer == ECDSA.recover(_hash, _sig));\n    }\n}\n",
  "sourcePath": "/home/seb/perun/perun-payment-channels/contracts/LedgerChannels.sol",
  "compiler": {
    "name": "solc",
    "version": "0.5.3+commit.10d17f24.Linux.g++"
  },
  "schemaVersion": "3.0.16",
  "updatedAt": "2019-09-21T15:00:45.353Z",
  "devdoc": {
    "author": "Sebastian Stammler, Marius van der Wijden",
    "details": "This is a single-deployment version of payment channels, where each  channel state resides at its own uint id in the channels mapping.  The channel initiator is sometimes referred to as A, the confirmer as B.",
    "methods": {
      "closeInitialBalance(uint256)": {
        "params": {
          "_id": "channel id"
        }
      },
      "open(uint256,uint48,address,uint256)": {
        "params": {
          "_counterBalance": "The other side's required balance.",
          "_counterParty": "The channel's other side, who needs to confirm the channel.",
          "_idSeed": "seed that is used to calculate the channel id, which will  be genId(msg.sender, _counterParty, _idSeed)",
          "_timeoutDuration": "duration of confirmations of channel opening  and closing"
        }
      }
    },
    "title": "Perun Ledger Payment Channels"
  },
  "userdoc": {
    "methods": {
      "closeInitialBalance(uint256)": {
        "notice": "Initiates closing of channel _id without updating the initial  balance. This is like close() without the udpate.  Transitions: Open -> ClosingByX"
      },
      "ethSignedMsgHash(uint256,uint256,uint256,uint256)": {
        "notice": "returns the channel update message to sign by each party.  Mimic this in your off-chain application.  Note that the channel id already encodes the parties of the channel, so  we don't need to add them to the message digest."
      },
      "genId(address,address,uint256)": {
        "notice": "generates a deterministic channel id for a channel between _A and  _B, using seed _idSeed.  Channels are saved to the channels map at this id, having the effect  that a channel id can never belong to a different pair of channel  parties."
      },
      "getChannel(uint256)": {
        "notice": "Public getter for LedgerChannels. Primarily used for testing."
      },
      "open(uint256,uint48,address,uint256)": {
        "notice": "opens request to open a payment channel by the sender of the tx.  Sent ether is blocked in the opening channel as A's balance.  The id of this channel will be genId(msg.sender, _counterParty, _idSeed)"
      }
    },
    "notice": "Single-deployment ledger payment channels contract.  Allows two parties to block ether in a payment channel and execute  off-chain transactions within this channel."
  }
}